{
  "_format": "hh-sol-artifact-1",
  "contractName": "VotingSystem",
  "sourceName": "contracts/VotingSystem.sol",
  "abi": [
    {
      "inputs": [
        {
          "internalType": "uint256",
          "name": "",
          "type": "uint256"
        }
      ],
      "name": "contests",
      "outputs": [
        {
          "internalType": "string",
          "name": "title",
          "type": "string"
        },
        {
          "internalType": "string",
          "name": "description",
          "type": "string"
        },
        {
          "internalType": "bool",
          "name": "isActive",
          "type": "bool"
        }
      ],
      "stateMutability": "view",
      "type": "function"
    },
    {
      "inputs": [
        {
          "internalType": "string",
          "name": "_title",
          "type": "string"
        },
        {
          "internalType": "string",
          "name": "_description",
          "type": "string"
        },
        {
          "internalType": "string[]",
          "name": "_choices",
          "type": "string[]"
        }
      ],
      "name": "createContest",
      "outputs": [],
      "stateMutability": "nonpayable",
      "type": "function"
    },
    {
      "inputs": [
        {
          "internalType": "uint256",
          "name": "_contestIndex",
          "type": "uint256"
        }
      ],
      "name": "endContest",
      "outputs": [],
      "stateMutability": "nonpayable",
      "type": "function"
    },
    {
      "inputs": [
        {
          "internalType": "uint256",
          "name": "_contestIndex",
          "type": "uint256"
        }
      ],
      "name": "getChoices",
      "outputs": [
        {
          "internalType": "string[]",
          "name": "",
          "type": "string[]"
        },
        {
          "internalType": "uint256[]",
          "name": "",
          "type": "uint256[]"
        }
      ],
      "stateMutability": "view",
      "type": "function"
    },
    {
      "inputs": [],
      "name": "getContestsCount",
      "outputs": [
        {
          "internalType": "uint256",
          "name": "",
          "type": "uint256"
        }
      ],
      "stateMutability": "view",
      "type": "function"
    },
    {
      "inputs": [
        {
          "internalType": "uint256",
          "name": "_contestIndex",
          "type": "uint256"
        },
        {
          "internalType": "address",
          "name": "_voter",
          "type": "address"
        }
      ],
      "name": "hasVoted",
      "outputs": [
        {
          "internalType": "bool",
          "name": "",
          "type": "bool"
        }
      ],
      "stateMutability": "view",
      "type": "function"
    },
    {
      "inputs": [
        {
          "internalType": "uint256",
          "name": "_contestIndex",
          "type": "uint256"
        }
      ],
      "name": "isContestActive",
      "outputs": [
        {
          "internalType": "bool",
          "name": "",
          "type": "bool"
        }
      ],
      "stateMutability": "view",
      "type": "function"
    },
    {
      "inputs": [
        {
          "internalType": "uint256",
          "name": "_contestIndex",
          "type": "uint256"
        },
        {
          "internalType": "uint256",
          "name": "_choiceIndex",
          "type": "uint256"
        }
      ],
      "name": "vote",
      "outputs": [],
      "stateMutability": "nonpayable",
      "type": "function"
    }
  ],
  "bytecode": "0x608060405234801561001057600080fd5b506114f4806100206000396000f3fe608060405234801561001057600080fd5b50600436106100885760003560e01c8063b384abef1161005b578063b384abef1461013c578063b6650e0c14610158578063bf5e253f14610174578063d07bb036146101a457610088565b806318da2cb21461008d57806343859632146100be5780639d7ed738146100ee578063afa984d014610120575b600080fd5b6100a760048036038101906100a2919061092b565b6101c2565b6040516100b5929190610b68565b60405180910390f35b6100d860048036038101906100d39190610bfd565b6103d8565b6040516100e59190610c58565b60405180910390f35b6101086004803603810190610103919061092b565b610451565b60405161011793929190610cbd565b60405180910390f35b61013a6004803603810190610135919061092b565b6105a8565b005b61015660048036038101906101519190610d02565b6105ee565b005b610172600480360381019061016d9190610f5d565b610791565b005b61018e6004803603810190610189919061092b565b61089a565b60405161019b9190610c58565b60405180910390f35b6101ac6108d5565b6040516101b99190611013565b60405180910390f35b60608060008084815481106101da576101d961102e565b5b9060005260206000209060050201905060008160020180549050905060008167ffffffffffffffff81111561021257610211610d4c565b5b60405190808252806020026020018201604052801561024557816020015b60608152602001906001900390816102305790505b50905060008267ffffffffffffffff81111561026457610263610d4c565b5b6040519080825280602002602001820160405280156102925781602001602082028036833780820191505090505b50905060005b838110156103c8578460020181815481106102b6576102b561102e565b5b906000526020600020906002020160000180546102d29061108c565b80601f01602080910402602001604051908101604052809291908181526020018280546102fe9061108c565b801561034b5780601f106103205761010080835404028352916020019161034b565b820191906000526020600020905b81548152906001019060200180831161032e57829003601f168201915b50505050508382815181106103635761036261102e565b5b60200260200101819052508460020181815481106103845761038361102e565b5b9060005260206000209060020201600101548282815181106103a9576103a861102e565b5b60200260200101818152505080806103c0906110ec565b915050610298565b5081819550955050505050915091565b60008083815481106103ed576103ec61102e565b5b906000526020600020906005020160030160008373ffffffffffffffffffffffffffffffffffffffff1673ffffffffffffffffffffffffffffffffffffffff16815260200190815260200160002060009054906101000a900460ff16905092915050565b6000818154811061046157600080fd5b90600052602060002090600502016000915090508060000180546104849061108c565b80601f01602080910402602001604051908101604052809291908181526020018280546104b09061108c565b80156104fd5780601f106104d2576101008083540402835291602001916104fd565b820191906000526020600020905b8154815290600101906020018083116104e057829003601f168201915b5050505050908060010180546105129061108c565b80601f016020809104026020016040519081016040528092919081815260200182805461053e9061108c565b801561058b5780601f106105605761010080835404028352916020019161058b565b820191906000526020600020905b81548152906001019060200180831161056e57829003601f168201915b5050505050908060040160009054906101000a900460ff16905083565b60008082815481106105bd576105bc61102e565b5b9060005260206000209060050201905060008160040160006101000a81548160ff0219169083151502179055505050565b60008083815481106106035761060261102e565b5b906000526020600020906005020190508060040160009054906101000a900460ff16610664576040517f08c379a000000000000000000000000000000000000000000000000000000000815260040161065b90611180565b60405180910390fd5b8060030160003373ffffffffffffffffffffffffffffffffffffffff1673ffffffffffffffffffffffffffffffffffffffff16815260200190815260200160002060009054906101000a900460ff16156106f3576040517f08c379a00000000000000000000000000000000000000000000000000000000081526004016106ea906111ec565b60405180910390fd5b600181600201838154811061070b5761070a61102e565b5b9060005260206000209060020201600101600082825461072b919061120c565b9250508190555060018160030160003373ffffffffffffffffffffffffffffffffffffffff1673ffffffffffffffffffffffffffffffffffffffff16815260200190815260200160002060006101000a81548160ff021916908315150217905550505050565b6000806001816001815401808255809150500390600052602060002090600502019050838160000190816107c591906113ec565b50828160010190816107d791906113ec565b5060018160040160006101000a81548160ff02191690831515021790555060005b8251811015610893578160020160405180604001604052808584815181106108235761082261102e565b5b6020026020010151815260200160008152509080600181540180825580915050600190039060005260206000209060020201600090919091909150600082015181600001908161087391906113ec565b50602082015181600101555050808061088b906110ec565b9150506107f8565b5050505050565b60008082815481106108af576108ae61102e565b5b906000526020600020906005020160040160009054906101000a900460ff169050919050565b60008080549050905090565b6000604051905090565b600080fd5b600080fd5b6000819050919050565b610908816108f5565b811461091357600080fd5b50565b600081359050610925816108ff565b92915050565b600060208284031215610941576109406108eb565b5b600061094f84828501610916565b91505092915050565b600081519050919050565b600082825260208201905092915050565b6000819050602082019050919050565b600081519050919050565b600082825260208201905092915050565b60005b838110156109be5780820151818401526020810190506109a3565b60008484015250505050565b6000601f19601f8301169050919050565b60006109e682610984565b6109f0818561098f565b9350610a008185602086016109a0565b610a09816109ca565b840191505092915050565b6000610a2083836109db565b905092915050565b6000602082019050919050565b6000610a4082610958565b610a4a8185610963565b935083602082028501610a5c85610974565b8060005b85811015610a985784840389528151610a798582610a14565b9450610a8483610a28565b925060208a01995050600181019050610a60565b50829750879550505050505092915050565b600081519050919050565b600082825260208201905092915050565b6000819050602082019050919050565b610adf816108f5565b82525050565b6000610af18383610ad6565b60208301905092915050565b6000602082019050919050565b6000610b1582610aaa565b610b1f8185610ab5565b9350610b2a83610ac6565b8060005b83811015610b5b578151610b428882610ae5565b9750610b4d83610afd565b925050600181019050610b2e565b5085935050505092915050565b60006040820190508181036000830152610b828185610a35565b90508181036020830152610b968184610b0a565b90509392505050565b600073ffffffffffffffffffffffffffffffffffffffff82169050919050565b6000610bca82610b9f565b9050919050565b610bda81610bbf565b8114610be557600080fd5b50565b600081359050610bf781610bd1565b92915050565b60008060408385031215610c1457610c136108eb565b5b6000610c2285828601610916565b9250506020610c3385828601610be8565b9150509250929050565b60008115159050919050565b610c5281610c3d565b82525050565b6000602082019050610c6d6000830184610c49565b92915050565b600082825260208201905092915050565b6000610c8f82610984565b610c998185610c73565b9350610ca98185602086016109a0565b610cb2816109ca565b840191505092915050565b60006060820190508181036000830152610cd78186610c84565b90508181036020830152610ceb8185610c84565b9050610cfa6040830184610c49565b949350505050565b60008060408385031215610d1957610d186108eb565b5b6000610d2785828601610916565b9250506020610d3885828601610916565b9150509250929050565b600080fd5b600080fd5b7f4e487b7100000000000000000000000000000000000000000000000000000000600052604160045260246000fd5b610d84826109ca565b810181811067ffffffffffffffff82111715610da357610da2610d4c565b5b80604052505050565b6000610db66108e1565b9050610dc28282610d7b565b919050565b600067ffffffffffffffff821115610de257610de1610d4c565b5b610deb826109ca565b9050602081019050919050565b82818337600083830152505050565b6000610e1a610e1584610dc7565b610dac565b905082815260208101848484011115610e3657610e35610d47565b5b610e41848285610df8565b509392505050565b600082601f830112610e5e57610e5d610d42565b5b8135610e6e848260208601610e07565b91505092915050565b600067ffffffffffffffff821115610e9257610e91610d4c565b5b602082029050602081019050919050565b600080fd5b6000610ebb610eb684610e77565b610dac565b90508083825260208201905060208402830185811115610ede57610edd610ea3565b5b835b81811015610f2557803567ffffffffffffffff811115610f0357610f02610d42565b5b808601610f108982610e49565b85526020850194505050602081019050610ee0565b5050509392505050565b600082601f830112610f4457610f43610d42565b5b8135610f54848260208601610ea8565b91505092915050565b600080600060608486031215610f7657610f756108eb565b5b600084013567ffffffffffffffff811115610f9457610f936108f0565b5b610fa086828701610e49565b935050602084013567ffffffffffffffff811115610fc157610fc06108f0565b5b610fcd86828701610e49565b925050604084013567ffffffffffffffff811115610fee57610fed6108f0565b5b610ffa86828701610f2f565b9150509250925092565b61100d816108f5565b82525050565b60006020820190506110286000830184611004565b92915050565b7f4e487b7100000000000000000000000000000000000000000000000000000000600052603260045260246000fd5b7f4e487b7100000000000000000000000000000000000000000000000000000000600052602260045260246000fd5b600060028204905060018216806110a457607f821691505b6020821081036110b7576110b661105d565b5b50919050565b7f4e487b7100000000000000000000000000000000000000000000000000000000600052601160045260246000fd5b60006110f7826108f5565b91507fffffffffffffffffffffffffffffffffffffffffffffffffffffffffffffffff8203611129576111286110bd565b5b600182019050919050565b7f436f6e74657374206973206e6f74206163746976652e00000000000000000000600082015250565b600061116a601683610c73565b915061117582611134565b602082019050919050565b600060208201905081810360008301526111998161115d565b9050919050565b7f596f75206861766520616c726561647920766f7465642e000000000000000000600082015250565b60006111d6601783610c73565b91506111e1826111a0565b602082019050919050565b60006020820190508181036000830152611205816111c9565b9050919050565b6000611217826108f5565b9150611222836108f5565b925082820190508082111561123a576112396110bd565b5b92915050565b60008190508160005260206000209050919050565b60006020601f8301049050919050565b600082821b905092915050565b6000600883026112a27fffffffffffffffffffffffffffffffffffffffffffffffffffffffffffffffff82611265565b6112ac8683611265565b95508019841693508086168417925050509392505050565b6000819050919050565b60006112e96112e46112df846108f5565b6112c4565b6108f5565b9050919050565b6000819050919050565b611303836112ce565b61131761130f826112f0565b848454611272565b825550505050565b600090565b61132c61131f565b6113378184846112fa565b505050565b5b8181101561135b57611350600082611324565b60018101905061133d565b5050565b601f8211156113a05761137181611240565b61137a84611255565b81016020851015611389578190505b61139d61139585611255565b83018261133c565b50505b505050565b600082821c905092915050565b60006113c3600019846008026113a5565b1980831691505092915050565b60006113dc83836113b2565b9150826002028217905092915050565b6113f582610984565b67ffffffffffffffff81111561140e5761140d610d4c565b5b611418825461108c565b61142382828561135f565b600060209050601f8311600181146114565760008415611444578287015190505b61144e85826113d0565b8655506114b6565b601f19841661146486611240565b60005b8281101561148c57848901518255600182019150602085019450602081019050611467565b868310156114a957848901516114a5601f8916826113b2565b8355505b6001600288020188555050505b50505050505056fea26469706673582212200a6ea93e93e46c2d8e77745e21073f8eebf33e590058cf890fbf50f26bc17d3664736f6c63430008130033",
  "linkReferences": {},
  "deployedLinkReferences": {}
}